:100000000C9456000C946B000C946B000C946B00D9
:100010000C946B000C946B000C946B000C946B00B4
:100020000C946B000C946B000C946B000C946B00A4
:100030000C946B000C946B000C946B000C946B0094
:100040000C946B000C946B000C946B000C946B0084
:100050000C946B000C946B000C946B000C946B0074
:100060000C946B000C946B000C946B000C946B0064
:100070000C946B000C946B000C946B000C946B0054
:100080000C946B000C946B000C946B000C946B0044
:100090000C946B000C946B000C946B000C946B0034
:1000A0000C946B000C946B000C946B0011241FBE1D
:1000B000CFEFDAE0DEBFCDBF11E0A0E0B1E0E6E1D6
:1000C000F1E002C005900D92A430B107D9F70E946B
:1000D0006D000C9489000C9400003F9A89B18078DF
:1000E00090E090930301809302018CB18074282FDB
:1000F00030E03093010120930001882311F0479AEA
:1001000001C047988FE59AEE0197F1F700C0000013
:06011000E5CFF894FFCFDB
:0401160001000100E3
:00000001FF
