:100000000C9456000C946B000C946B000C946B00D9
:100010000C946B000C946B000C946B000C946B00B4
:100020000C946B000C946B000C946B000C946B00A4
:100030000C946B000C946B000C946B000C946B0094
:100040000C946B000C946B000C946B000C946B0084
:100050000C946B000C946B000C946B000C946B0074
:100060000C946B000C946B000C946B000C946B0064
:100070000C946B000C946B000C946B000C946B0054
:100080000C946B000C946B000C946B000C946B0044
:100090000C946B000C946B000C946B000C946B0034
:1000A0000C946B000C946B000C946B0011241FBE1D
:1000B000CFEFDAE0DEBFCDBF11E0A0E0B1E0ECE6CB
:1000C000F1E002C005900D92A430B107D9F70E946B
:1000D0008C000C94B4000C940000E0E8F0E0808107
:1000E000826A8083E1E8F0E080818B61808387E829
:1000F00093E1909387008093860084B1806684B9F1
:1001000008958CE391E09093890080938800909308
:100110008B0080938A0008950E946D003F9A2CE323
:1001200031E089B1807890E09093030180930201DF
:100130008CB18074482F50E050930101409300012E
:10014000882311F0479A01C0479830938900209383
:10015000880030938B0020938A008FE59AEE0197F8
:0C016000F1F700C00000DDCFF894FFCFE5
:04016C00010001008D
:00000001FF
